{
  "contractName": "BrutalSaving",
  "abi": [
    {
      "inputs": [
        {
          "internalType": "uint256",
          "name": "",
          "type": "uint256"
        }
      ],
      "name": "TransactionData",
      "outputs": [
        {
          "internalType": "address",
          "name": "",
          "type": "address"
        }
      ],
      "stateMutability": "view",
      "type": "function",
      "constant": true
    },
    {
      "inputs": [
        {
          "internalType": "address",
          "name": "",
          "type": "address"
        }
      ],
      "name": "addressToAmountFunded",
      "outputs": [
        {
          "internalType": "uint256",
          "name": "",
          "type": "uint256"
        }
      ],
      "stateMutability": "view",
      "type": "function",
      "constant": true
    },
    {
      "inputs": [
        {
          "internalType": "uint256",
          "name": "_unlockDate",
          "type": "uint256"
        }
      ],
      "name": "fund",
      "outputs": [],
      "stateMutability": "payable",
      "type": "function",
      "payable": true
    },
    {
      "inputs": [],
      "name": "getTransac",
      "outputs": [
        {
          "internalType": "address[]",
          "name": "",
          "type": "address[]"
        }
      ],
      "stateMutability": "view",
      "type": "function",
      "constant": true
    },
    {
      "inputs": [
        {
          "internalType": "address",
          "name": "_address",
          "type": "address"
        }
      ],
      "name": "getWdate",
      "outputs": [
        {
          "internalType": "uint256",
          "name": "",
          "type": "uint256"
        }
      ],
      "stateMutability": "view",
      "type": "function",
      "constant": true
    },
    {
      "inputs": [],
      "name": "withdraw",
      "outputs": [
        {
          "internalType": "string",
          "name": "withrawmsg",
          "type": "string"
        }
      ],
      "stateMutability": "payable",
      "type": "function",
      "payable": true
    },
    {
      "inputs": [],
      "name": "balanceofSC",
      "outputs": [
        {
          "internalType": "uint256",
          "name": "",
          "type": "uint256"
        }
      ],
      "stateMutability": "view",
      "type": "function",
      "constant": true
    }
  ],
  "bytecode": "0x608060405234801561001057600080fd5b5061091f806100206000396000f3fe6080604052600436106100705760003560e01c8063467ab4581161004e578063467ab458146100fb57806367174e9d14610126578063ca1d209d14610163578063e09f4f0e1461017f57610070565b80633ccfd60b146100755780633db50952146100935780633e47d6f3146100be575b600080fd5b61007d6101bc565b60405161008a91906105c4565b60405180910390f35b34801561009f57600080fd5b506100a86102d8565b6040516100b591906105ff565b60405180910390f35b3480156100ca57600080fd5b506100e560048036038101906100e0919061067d565b6102e0565b6040516100f291906105ff565b60405180910390f35b34801561010757600080fd5b506101106102f8565b60405161011d9190610768565b60405180910390f35b34801561013257600080fd5b5061014d600480360381019061014891906107b6565b610386565b60405161015a91906107f2565b60405180910390f35b61017d600480360381019061017891906107b6565b6103c5565b005b34801561018b57600080fd5b506101a660048036038101906101a1919061067d565b6104df565b6040516101b391906105ff565b60405180910390f35b60606101c7336104df565b4210156101ee576040518060600160405280602381526020016108c76023913990506102d5565b600033905060008060003373ffffffffffffffffffffffffffffffffffffffff1673ffffffffffffffffffffffffffffffffffffffff168152602001908152602001600020549050806000803373ffffffffffffffffffffffffffffffffffffffff1673ffffffffffffffffffffffffffffffffffffffff1681526020019081526020016000206000828254610284919061083c565b925050819055508173ffffffffffffffffffffffffffffffffffffffff166108fc829081150290604051600060405180830381858888f193505050501580156102d1573d6000803e3d6000fd5b5050505b90565b600047905090565b60006020528060005260406000206000915090505481565b6060600280548060200260200160405190810160405280929190818152602001828054801561037c57602002820191906000526020600020905b8160009054906101000a900473ffffffffffffffffffffffffffffffffffffffff1673ffffffffffffffffffffffffffffffffffffffff1681526020019060010190808311610332575b5050505050905090565b6002818154811061039657600080fd5b906000526020600020016000915054906101000a900473ffffffffffffffffffffffffffffffffffffffff1681565b6000600160003373ffffffffffffffffffffffffffffffffffffffff1673ffffffffffffffffffffffffffffffffffffffff1681526020019081526020016000209050346000803373ffffffffffffffffffffffffffffffffffffffff1673ffffffffffffffffffffffffffffffffffffffff16815260200190815260200160002060008282546104569190610870565b925050819055503481600001819055508181600101819055504281600201819055506002339080600181540180825580915050600190039060005260206000200160009091909190916101000a81548173ffffffffffffffffffffffffffffffffffffffff021916908373ffffffffffffffffffffffffffffffffffffffff1602179055505050565b6000600160008373ffffffffffffffffffffffffffffffffffffffff1673ffffffffffffffffffffffffffffffffffffffff168152602001908152602001600020600101549050919050565b600081519050919050565b600082825260208201905092915050565b60005b8381101561056557808201518184015260208101905061054a565b83811115610574576000848401525b50505050565b6000601f19601f8301169050919050565b60006105968261052b565b6105a08185610536565b93506105b0818560208601610547565b6105b98161057a565b840191505092915050565b600060208201905081810360008301526105de818461058b565b905092915050565b6000819050919050565b6105f9816105e6565b82525050565b600060208201905061061460008301846105f0565b92915050565b600080fd5b600073ffffffffffffffffffffffffffffffffffffffff82169050919050565b600061064a8261061f565b9050919050565b61065a8161063f565b811461066557600080fd5b50565b60008135905061067781610651565b92915050565b6000602082840312156106935761069261061a565b5b60006106a184828501610668565b91505092915050565b600081519050919050565b600082825260208201905092915050565b6000819050602082019050919050565b6106df8161063f565b82525050565b60006106f183836106d6565b60208301905092915050565b6000602082019050919050565b6000610715826106aa565b61071f81856106b5565b935061072a836106c6565b8060005b8381101561075b57815161074288826106e5565b975061074d836106fd565b92505060018101905061072e565b5085935050505092915050565b60006020820190508181036000830152610782818461070a565b905092915050565b610793816105e6565b811461079e57600080fd5b50565b6000813590506107b08161078a565b92915050565b6000602082840312156107cc576107cb61061a565b5b60006107da848285016107a1565b91505092915050565b6107ec8161063f565b82525050565b600060208201905061080760008301846107e3565b92915050565b7f4e487b7100000000000000000000000000000000000000000000000000000000600052601160045260246000fd5b6000610847826105e6565b9150610852836105e6565b9250828210156108655761086461080d565b5b828203905092915050565b600061087b826105e6565b9150610886836105e6565b9250827fffffffffffffffffffffffffffffffffffffffffffffffffffffffffffffffff038211156108bb576108ba61080d565b5b82820190509291505056fe43616e6e6f74207769746864726177207965742e2043727970746f42616d734f6b6179a2646970667358221220bcb6ec8055a0680e864136c3f9fffe7c5c418e8d3545535800a6b156a1684c5864736f6c634300080d0033",
  "immutableReferences": {},
  "source": "// SPDX-License-Identifier: GPL-3.0\r\npragma solidity ^0.8.0;\r\n\r\ncontract BrutalSaving {\r\n\r\n    mapping(address => uint256) public addressToAmountFunded; \r\n    //get the amount funded by an address\r\n    struct TransactionD {\r\n        uint256 Amount;\r\n        uint256 Wdate;\r\n        uint256 Ttime;\r\n    }\r\n    //collect transaction data \r\n    mapping (address => TransactionD) Ttransactions;\r\n    //Map adrress to transaction data collected \r\n    address[] public TransactionData;\r\n    //Save all address sending fund in a array\r\n    function fund(uint256 _unlockDate) public payable {\r\n        TransactionD storage transac = Ttransactions[msg.sender]; //Add new transaction to mapping and struct\r\n        addressToAmountFunded[msg.sender] += msg.value; //Add funding amount to mapping\r\n        transac.Amount = msg.value; //Add funding amount to struct\r\n        transac.Wdate = _unlockDate; //Add unlock date to struct\r\n        transac.Ttime = block.timestamp; //Add transaction time to struct\r\n        TransactionData.push(msg.sender); //Add address to transaction address array\r\n    }\r\n\r\n    function getTransac() view public returns(address[] memory) {\r\n        return TransactionData; //Return all address sending fund\r\n    }\r\n\r\n    function getWdate(address _address) view public returns (uint) {\r\n        return Ttransactions[_address].Wdate; //Return unlock date of address\r\n    }\r\n\r\n    function withdraw() public payable returns (string memory withrawmsg) {\r\n        if (block.timestamp < getWdate(msg.sender)) {\r\n            withrawmsg = \"Cannot withdraw yet. CryptoBamsOkay\";    //Return message if cannot withdraw yet\r\n            return withrawmsg;\r\n        } else {\r\n            address payable payable_addr = payable(msg.sender); //Get payable address\r\n            uint256 wAmount = addressToAmountFunded[msg.sender]; //Get amount to withdraw\r\n            addressToAmountFunded[msg.sender] -= wAmount; //Subtract amount from mapping\r\n            payable_addr.transfer(wAmount); //Transfer amount to payable address\r\n        }\r\n    }\r\n\r\n    function balanceofSC() public view returns (uint256) {\r\n        return address(this).balance; //Return balance of contract\r\n    }\r\n}",
  "sourcePath": "C:\\Users\\fabol\\source\\repos\\brutal_saving\\src\\contracts\\Brutalsaving.sol",
  "compiler": {
    "name": "solc",
    "version": "0.8.13+commit.abaa5c0e.Emscripten.clang"
  },
  "schemaVersion": "3.4.4",
  "updatedAt": "2022-04-29T06:07:38.999Z",
  "networkType": "ethereum",
  "devdoc": {
    "kind": "dev",
    "methods": {},
    "version": 1
  },
  "userdoc": {
    "kind": "user",
    "methods": {},
    "version": 1
  }
}