{
  "contractName": "BrutalSaving",
  "abi": [
    {
      "inputs": [
        {
          "internalType": "address",
          "name": "",
          "type": "address"
        }
      ],
      "name": "addressToAmountFunded",
      "outputs": [
        {
          "internalType": "uint256",
          "name": "",
          "type": "uint256"
        }
      ],
      "stateMutability": "view",
      "type": "function",
      "constant": true
    },
    {
      "inputs": [],
      "name": "currentAddress",
      "outputs": [
        {
          "internalType": "address",
          "name": "",
          "type": "address"
        }
      ],
      "stateMutability": "view",
      "type": "function",
      "constant": true
    },
    {
      "inputs": [],
      "name": "currentTime",
      "outputs": [
        {
          "internalType": "uint256",
          "name": "",
          "type": "uint256"
        }
      ],
      "stateMutability": "view",
      "type": "function",
      "constant": true
    },
    {
      "inputs": [],
      "name": "unlockDate",
      "outputs": [
        {
          "internalType": "uint256",
          "name": "",
          "type": "uint256"
        }
      ],
      "stateMutability": "view",
      "type": "function",
      "constant": true
    },
    {
      "inputs": [
        {
          "internalType": "uint256",
          "name": "_unlockDate",
          "type": "uint256"
        }
      ],
      "name": "fund",
      "outputs": [],
      "stateMutability": "payable",
      "type": "function",
      "payable": true
    },
    {
      "inputs": [],
      "name": "withdraw",
      "outputs": [
        {
          "internalType": "string",
          "name": "withrawmsg",
          "type": "string"
        }
      ],
      "stateMutability": "payable",
      "type": "function",
      "payable": true
    },
    {
      "inputs": [],
      "name": "balanceofSC",
      "outputs": [
        {
          "internalType": "uint256",
          "name": "",
          "type": "uint256"
        }
      ],
      "stateMutability": "view",
      "type": "function",
      "constant": true
    }
  ],
  "bytecode": "0x60806040524260035534801561001457600080fd5b5061065d806100246000396000f3fe6080604052600436106100705760003560e01c806369ac57211161004e57806369ac5721146100fb57806381bf471814610126578063ca1d209d14610151578063d18e81b31461016d57610070565b80633ccfd60b146100755780633db50952146100935780633e47d6f3146100be575b600080fd5b61007d610198565b60405161008a9190610439565b60405180910390f35b34801561009f57600080fd5b506100a86102ae565b6040516100b59190610474565b60405180910390f35b3480156100ca57600080fd5b506100e560048036038101906100e091906104f2565b6102b6565b6040516100f29190610474565b60405180910390f35b34801561010757600080fd5b506101106102ce565b60405161011d9190610474565b60405180910390f35b34801561013257600080fd5b5061013b6102d4565b604051610148919061052e565b60405180910390f35b61016b60048036038101906101669190610575565b6102fa565b005b34801561017957600080fd5b5061018261039a565b60405161018f9190610474565b60405180910390f35b6060600160009054906101000a900473ffffffffffffffffffffffffffffffffffffffff1673ffffffffffffffffffffffffffffffffffffffff163373ffffffffffffffffffffffffffffffffffffffff16146101f457600080fd5b60025442101561023b576040518060400160405280601381526020017f43616e6e6f74207769746864726177207965740000000000000000000000000081525090506102ab565b6000600160009054906101000a900473ffffffffffffffffffffffffffffffffffffffff1690508073ffffffffffffffffffffffffffffffffffffffff166108fc479081150290604051600060405180830381858888f193505050501580156102a8573d6000803e3d6000fd5b50505b90565b600047905090565b60006020528060005260406000206000915090505481565b60025481565b600160009054906101000a900473ffffffffffffffffffffffffffffffffffffffff1681565b8060028190555033600160006101000a81548173ffffffffffffffffffffffffffffffffffffffff021916908373ffffffffffffffffffffffffffffffffffffffff160217905550346000803373ffffffffffffffffffffffffffffffffffffffff1673ffffffffffffffffffffffffffffffffffffffff168152602001908152602001600020600082825461039091906105d1565b9250508190555050565b60035481565b600081519050919050565b600082825260208201905092915050565b60005b838110156103da5780820151818401526020810190506103bf565b838111156103e9576000848401525b50505050565b6000601f19601f8301169050919050565b600061040b826103a0565b61041581856103ab565b93506104258185602086016103bc565b61042e816103ef565b840191505092915050565b600060208201905081810360008301526104538184610400565b905092915050565b6000819050919050565b61046e8161045b565b82525050565b60006020820190506104896000830184610465565b92915050565b600080fd5b600073ffffffffffffffffffffffffffffffffffffffff82169050919050565b60006104bf82610494565b9050919050565b6104cf816104b4565b81146104da57600080fd5b50565b6000813590506104ec816104c6565b92915050565b6000602082840312156105085761050761048f565b5b6000610516848285016104dd565b91505092915050565b610528816104b4565b82525050565b6000602082019050610543600083018461051f565b92915050565b6105528161045b565b811461055d57600080fd5b50565b60008135905061056f81610549565b92915050565b60006020828403121561058b5761058a61048f565b5b600061059984828501610560565b91505092915050565b7f4e487b7100000000000000000000000000000000000000000000000000000000600052601160045260246000fd5b60006105dc8261045b565b91506105e78361045b565b9250827fffffffffffffffffffffffffffffffffffffffffffffffffffffffffffffffff0382111561061c5761061b6105a2565b5b82820190509291505056fea264697066735822122078258a9d0591f373eef2ba748966416b810b51124319e6092b529b4e5fed138e64736f6c634300080d0033",
  "immutableReferences": {},
  "source": "pragma solidity ^0.8.0;\r\n\r\ncontract BrutalSaving {\r\n    mapping(address => uint256) public addressToAmountFunded;\r\n    address public currentAddress;\r\n    uint256 public unlockDate;\r\n    uint256 public currentTime = block.timestamp;\r\n\r\n    function fund(uint256 _unlockDate) public payable {\r\n        unlockDate = _unlockDate;\r\n        currentAddress = msg.sender;\r\n        addressToAmountFunded[msg.sender] += msg.value;\r\n    }\r\n\r\n    function withdraw() public payable returns (string memory withrawmsg) {\r\n        require(msg.sender == currentAddress);\r\n        if (block.timestamp < unlockDate) {\r\n            return \"Cannot withdraw yet\";\r\n        } else {\r\n        address payable payable_addr = payable(currentAddress);\r\n        payable_addr.transfer(address(this).balance);\r\n        }\r\n    }\r\n\r\n    function balanceofSC() public view returns (uint256) {\r\n        return address(this).balance;\r\n    }\r\n}",
  "sourcePath": "C:\\Users\\fabol\\source\\repos\\brutal_saving\\src\\contracts\\Brutalsaving.sol",
  "compiler": {
    "name": "solc",
    "version": "0.8.13+commit.abaa5c0e.Emscripten.clang"
  },
  "schemaVersion": "3.4.4",
  "updatedAt": "2022-04-21T16:33:46.278Z",
  "networkType": "ethereum",
  "devdoc": {
    "kind": "dev",
    "methods": {},
    "version": 1
  },
  "userdoc": {
    "kind": "user",
    "methods": {},
    "version": 1
  }
}