{
  "contractName": "BrutalSaving",
  "abi": [
    {
      "inputs": [
        {
          "internalType": "address",
          "name": "",
          "type": "address"
        }
      ],
      "name": "addressToAmountFunded",
      "outputs": [
        {
          "internalType": "uint256",
          "name": "",
          "type": "uint256"
        }
      ],
      "stateMutability": "view",
      "type": "function",
      "constant": true
    },
    {
      "inputs": [],
      "name": "currentAddress",
      "outputs": [
        {
          "internalType": "address",
          "name": "",
          "type": "address"
        }
      ],
      "stateMutability": "view",
      "type": "function",
      "constant": true
    },
    {
      "inputs": [],
      "name": "fund",
      "outputs": [],
      "stateMutability": "payable",
      "type": "function",
      "payable": true
    },
    {
      "inputs": [],
      "name": "withdraw",
      "outputs": [],
      "stateMutability": "payable",
      "type": "function",
      "payable": true
    },
    {
      "inputs": [],
      "name": "balanceofSC",
      "outputs": [
        {
          "internalType": "uint256",
          "name": "",
          "type": "uint256"
        }
      ],
      "stateMutability": "view",
      "type": "function",
      "constant": true
    }
  ],
  "bytecode": "0x608060405234801561001057600080fd5b506103ee806100206000396000f3fe60806040526004361061004a5760003560e01c80633ccfd60b1461004f5780633db50952146100595780633e47d6f31461008457806381bf4718146100c1578063b60d4288146100ec575b600080fd5b6100576100f6565b005b34801561006557600080fd5b5061006e610167565b60405161007b919061025e565b60405180910390f35b34801561009057600080fd5b506100ab60048036038101906100a691906102dc565b61016f565b6040516100b8919061025e565b60405180910390f35b3480156100cd57600080fd5b506100d6610187565b6040516100e39190610318565b60405180910390f35b6100f46101ad565b005b6000600160009054906101000a900473ffffffffffffffffffffffffffffffffffffffff1690508073ffffffffffffffffffffffffffffffffffffffff166108fc479081150290604051600060405180830381858888f19350505050158015610163573d6000803e3d6000fd5b5050565b600047905090565b60006020528060005260406000206000915090505481565b600160009054906101000a900473ffffffffffffffffffffffffffffffffffffffff1681565b33600160006101000a81548173ffffffffffffffffffffffffffffffffffffffff021916908373ffffffffffffffffffffffffffffffffffffffff160217905550346000803373ffffffffffffffffffffffffffffffffffffffff1673ffffffffffffffffffffffffffffffffffffffff168152602001908152602001600020600082825461023c9190610362565b92505081905550565b6000819050919050565b61025881610245565b82525050565b6000602082019050610273600083018461024f565b92915050565b600080fd5b600073ffffffffffffffffffffffffffffffffffffffff82169050919050565b60006102a98261027e565b9050919050565b6102b98161029e565b81146102c457600080fd5b50565b6000813590506102d6816102b0565b92915050565b6000602082840312156102f2576102f1610279565b5b6000610300848285016102c7565b91505092915050565b6103128161029e565b82525050565b600060208201905061032d6000830184610309565b92915050565b7f4e487b7100000000000000000000000000000000000000000000000000000000600052601160045260246000fd5b600061036d82610245565b915061037883610245565b9250827fffffffffffffffffffffffffffffffffffffffffffffffffffffffffffffffff038211156103ad576103ac610333565b5b82820190509291505056fea26469706673582212202f9917464df7e8aef8bb4a17132807f19950b11c51b810be77ae5b142af167b064736f6c634300080d0033",
  "immutableReferences": {},
  "source": "// SPDX-License-Identifier: GPL-3.0\r\npragma solidity ^0.8.0;\r\n\r\ncontract BrutalSaving {\r\n    mapping(address => uint256) public addressToAmountFunded;\r\n    address public currentAddress;\r\n\r\n    function fund() public payable {\r\n        currentAddress = msg.sender;\r\n        addressToAmountFunded[msg.sender] += msg.value;\r\n    }\r\n\r\n    function withdraw() public payable {\r\n        address payable payable_addr = payable(currentAddress);\r\n        payable_addr.transfer(address(this).balance);\r\n    }\r\n\r\n    function balanceofSC() public view returns (uint256) {\r\n        return address(this).balance;\r\n    }\r\n\r\n}",
  "sourcePath": "C:\\Users\\fabol\\Documents\\brutal_saving\\src\\contracts\\Brutalsaving.sol",
  "compiler": {
    "name": "solc",
    "version": "0.8.13+commit.abaa5c0e.Emscripten.clang"
  },
  "schemaVersion": "3.4.4",
  "updatedAt": "2022-04-14T17:55:41.160Z",
  "networkType": "ethereum",
  "devdoc": {
    "kind": "dev",
    "methods": {},
    "version": 1
  },
  "userdoc": {
    "kind": "user",
    "methods": {},
    "version": 1
  }
}