{
  "contractName": "BrutalSaving",
  "abi": [
    {
      "inputs": [
        {
          "internalType": "address",
          "name": "",
          "type": "address"
        }
      ],
      "name": "addressToAmountFunded",
      "outputs": [
        {
          "internalType": "uint256",
          "name": "",
          "type": "uint256"
        }
      ],
      "stateMutability": "view",
      "type": "function",
      "constant": true
    },
    {
      "inputs": [],
      "name": "currentAddress",
      "outputs": [
        {
          "internalType": "address",
          "name": "",
          "type": "address"
        }
      ],
      "stateMutability": "view",
      "type": "function",
      "constant": true
    },
    {
      "inputs": [],
      "name": "currentTime",
      "outputs": [
        {
          "internalType": "uint256",
          "name": "",
          "type": "uint256"
        }
      ],
      "stateMutability": "view",
      "type": "function",
      "constant": true
    },
    {
      "inputs": [],
      "name": "unlockDate",
      "outputs": [
        {
          "internalType": "uint256",
          "name": "",
          "type": "uint256"
        }
      ],
      "stateMutability": "view",
      "type": "function",
      "constant": true
    },
    {
      "inputs": [
        {
          "internalType": "uint256",
          "name": "_unlockDate",
          "type": "uint256"
        }
      ],
      "name": "fund",
      "outputs": [],
      "stateMutability": "payable",
      "type": "function",
      "payable": true
    },
    {
      "inputs": [],
      "name": "withdraw",
      "outputs": [],
      "stateMutability": "payable",
      "type": "function",
      "payable": true
    },
    {
      "inputs": [],
      "name": "balanceofSC",
      "outputs": [
        {
          "internalType": "uint256",
          "name": "",
          "type": "uint256"
        }
      ],
      "stateMutability": "view",
      "type": "function",
      "constant": true
    }
  ],
  "bytecode": "0x60806040524260035534801561001457600080fd5b50610552806100246000396000f3fe6080604052600436106100705760003560e01c806369ac57211161004e57806369ac5721146100e757806381bf471814610112578063ca1d209d1461013d578063d18e81b31461015957610070565b80633ccfd60b146100755780633db509521461007f5780633e47d6f3146100aa575b600080fd5b61007d610184565b005b34801561008b57600080fd5b5061009461025e565b6040516100a19190610369565b60405180910390f35b3480156100b657600080fd5b506100d160048036038101906100cc91906103e7565b610266565b6040516100de9190610369565b60405180910390f35b3480156100f357600080fd5b506100fc61027e565b6040516101099190610369565b60405180910390f35b34801561011e57600080fd5b50610127610284565b6040516101349190610423565b60405180910390f35b6101576004803603810190610152919061046a565b6102aa565b005b34801561016557600080fd5b5061016e61034a565b60405161017b9190610369565b60405180910390f35b600160009054906101000a900473ffffffffffffffffffffffffffffffffffffffff1673ffffffffffffffffffffffffffffffffffffffff163373ffffffffffffffffffffffffffffffffffffffff16146101de57600080fd5b6002544210156101ed57600080fd5b6000600160009054906101000a900473ffffffffffffffffffffffffffffffffffffffff1690508073ffffffffffffffffffffffffffffffffffffffff166108fc479081150290604051600060405180830381858888f1935050505015801561025a573d6000803e3d6000fd5b5050565b600047905090565b60006020528060005260406000206000915090505481565b60025481565b600160009054906101000a900473ffffffffffffffffffffffffffffffffffffffff1681565b8060028190555033600160006101000a81548173ffffffffffffffffffffffffffffffffffffffff021916908373ffffffffffffffffffffffffffffffffffffffff160217905550346000803373ffffffffffffffffffffffffffffffffffffffff1673ffffffffffffffffffffffffffffffffffffffff168152602001908152602001600020600082825461034091906104c6565b9250508190555050565b60035481565b6000819050919050565b61036381610350565b82525050565b600060208201905061037e600083018461035a565b92915050565b600080fd5b600073ffffffffffffffffffffffffffffffffffffffff82169050919050565b60006103b482610389565b9050919050565b6103c4816103a9565b81146103cf57600080fd5b50565b6000813590506103e1816103bb565b92915050565b6000602082840312156103fd576103fc610384565b5b600061040b848285016103d2565b91505092915050565b61041d816103a9565b82525050565b60006020820190506104386000830184610414565b92915050565b61044781610350565b811461045257600080fd5b50565b6000813590506104648161043e565b92915050565b6000602082840312156104805761047f610384565b5b600061048e84828501610455565b91505092915050565b7f4e487b7100000000000000000000000000000000000000000000000000000000600052601160045260246000fd5b60006104d182610350565b91506104dc83610350565b9250827fffffffffffffffffffffffffffffffffffffffffffffffffffffffffffffffff0382111561051157610510610497565b5b82820190509291505056fea264697066735822122082e6e61ccfb9f1811821c6efe1b661c63ad9e212f918d2af983e3d391be205a964736f6c634300080d0033",
  "immutableReferences": {},
  "source": "// SPDX-License-Identifier: GPL-3.0\r\npragma solidity ^0.8.0;\r\n\r\ncontract BrutalSaving {\r\n    mapping(address => uint256) public addressToAmountFunded;\r\n    address public currentAddress;\r\n    uint256 public unlockDate;\r\n    uint256 public currentTime = block.timestamp;\r\n\r\n    function fund(uint256 _unlockDate) public payable {\r\n        unlockDate = _unlockDate;\r\n        currentAddress = msg.sender;\r\n        addressToAmountFunded[msg.sender] += msg.value;\r\n    }\r\n\r\n    function withdraw() public payable {\r\n        require(msg.sender == currentAddress);\r\n        require( block.timestamp >= unlockDate);\r\n        address payable payable_addr = payable(currentAddress);\r\n        payable_addr.transfer(address(this).balance);\r\n    }\r\n\r\n    function balanceofSC() public view returns (uint256) {\r\n        return address(this).balance;\r\n    }\r\n}",
  "sourcePath": "C:\\Users\\fabol\\source\\repos\\brutal_saving\\src\\contracts\\Brutalsaving.sol",
  "compiler": {
    "name": "solc",
    "version": "0.8.13+commit.abaa5c0e.Emscripten.clang"
  },
  "schemaVersion": "3.4.4",
  "updatedAt": "2022-04-19T02:49:50.776Z",
  "networkType": "ethereum",
  "devdoc": {
    "kind": "dev",
    "methods": {},
    "version": 1
  },
  "userdoc": {
    "kind": "user",
    "methods": {},
    "version": 1
  }
}